S01400004C4F434B45525359536170702E7372656310
S11300000C942A000C9447000C9447000C9447006D
S11300100C9447000C9447000C9447000C94470040
S11300200C9447000C9447000C9447000C94470030
S11300300C9447000C9447000C9447000C94470020
S11300400C9447000C9447000C9447000C94470010
S11300500C94470011241FBECFE5D8E0DEBFCDBF0E
S113006010E0A0E6B0E0ECEDF7E002C005900D92E0
S1130070AA3DB107D9F720E0AAEDB0E001C01D9276
S1130080AB3DB207E1F70E9477030C94EC030C94A8
S11300900000E199FECF9FBB8EBB6DBB8CB3846027
S11300A08CBB8CB382608CBB0895E199FECF9FBB5F
S11300B08EBB8CB381608CBB8DB308950F931F935B
S11300C0CF938C01C0E00BC08C2F90E0F801E80FB7
S11300D0F91F60818C599F4F0E944900CF5FC43043
S11300E098F3CF911F910F910895AC0190E006C051
S11300F0FA01E90FF11D20E320839F5F9430C0F3E0
S1130100CA010E945E0081E00E944A0282E80E94C5
S11301104A0280E690E00E9464032FEF87EA91E6AA
S1130120215080409040E1F700C0000081E00E942F
S11301304A020895EF92FF920F931F93CF937C018D
S11301408B0181E00E944A0282E80E944A028FE603
S113015090E00E94640382EC0E944A02C0E013C053
S11301600E94D5018823E1F30E94D501F801EC0F28
S1130170F11D80830E94D5010E94F4020E94D501E2
S11301808111FCCFCF5FC43058F30E94D50188237E
S1130190E1F30E94D5018F3251F50E94D5018111FE
S11301A0FCCF81E00E944A0220E00BC0822F90E045
S11301B0F701E80FF91FD801A80FB91F8C918083AC
S11301C02F5F243098F3C7010E945E008CE790E013
S11301D00E9464032FEF87EA91E62150804090400B
S11301E0E1F700C0000081E00E944A0217C081E0EC
S11301F00E944A028BE890E00E9464032FEF87EA92
S113020091E6215080409040E1F700C000000E9438
S1130210D5018111FCCF81E00E944A02CF911F9148
S11302200F91FF90EF9008950F931F93CF938C013C
S11302301092DA0080EC0E944A02C0E03BC00E94A7
S1130240D5018823E1F3C43061F40E94D5018D33D4
S113025041F40E94D5018111FCCF84E08093DA003F
S11302602EC00E94D5018D3329F40E94D50181113D
S1130270FCCF22C00E94D501F801EC0FF11D808350
S113028082B3816082BB8AE20E94F40286E00E940B
S11302904A022FEF81EE94E0215080409040E1F734
S11302A000C0000082B38E7F82BB0E94D501811101
S11302B0FCCFCF5FCA3018F28AE08093DA00CF9186
S11302C01F910F91089581E00E944A0282EC0E94DE
S11302D04A028AE990E00E94640382B3816082BB8F
S11302E02FEF8BE792E9215080409040E1F700C066
S11302F0000082B38E7F82BB81E00E944A0208958F
S113030081E00E944A0282EC0E944A0284EA90E060
S11303100E9464032FEF87EA91E6215080409040C9
S1130320E1F700C0000081E00E944A020895AC0198
S11303309091DA009430A9F09A3031F12DC0292F30
S113034030E0FB01E20FF31FE081DA01A20FB31FDB
S11303508C91E81721F00E94630180E008959F5F6B
S113036001C090E0943058F30E94800181E0089528
S1130370FB01E90FF11D2081203321F00E9463016C
S113038080E008959F5F01C090E09A3088F3CA012D
S11303900E94750082E008950E94630180E0089540
S11303A08FE084BB80EF85BB0895E0E06EC0E13050
S11303B099F028F0E230E9F0E33041F133C085B33D
S11303C08E7F85BB85B3826085BB85B3846085BB26
S11303D085B3886085BB26C085B3816085BB85B342
S11303E08D7F85BB85B3846085BB85B3886085BB01
S11303F019C085B3816085BB85B3826085BB85B335
S11304008B7F85BB85B3886085BB0CC085B3816059
S113041085BB85B3826085BB85B3846085BB85B3AA
S1130420877F85BB9C9909C0F0E0EE0FFF1FEE0F9C
S1130430FF1FEE54FF4F808108959D9909C0F0E09D
S1130440EE0FFF1FEE0FFF1FED54FF4F8081089545
S11304509E9909C0F0E0EE0FFF1FEE0FFF1FEC5452
S1130460FF4F808108959F9909C0F0E0EE0FFF1FB0
S1130470EE0FFF1FEB54FF4F808108958FE99FE03B
S11304800197F1F700C00000EF5FE43008F48FCF6C
S113049080E008959BB39B7F9BBB84FF04C09BB308
S11304A090619BBB03C09BB39F7E9BBB85FF04C035
S11304B09BB390629BBB03C09BB39F7D9BBB86FF9A
S11304C004C09BB390649BBB03C09BB39F7B9BBB4B
S11304D0882324F49BB390689BBB03C09BB39F7792
S11304E09BBB9BB398609BBBEFE9FFE03197F1F7AF
S11304F000C000009BB3977F9BBBEFE9FFE03197FF
S1130500F1F700C0000080FF04C09BB390619BBB67
S113051003C09BB39F7E9BBB81FF04C09BB39062CF
S11305209BBB03C09BB39F7D9BBB82FF04C09BB35B
S113053090649BBB03C09BB39F7B9BBB83FF04C0A6
S11305408BB380688BBB03C08BB38F778BBB8BB3B0
S113055088608BBB8FE99FE00197F1F700C0000032
S11305608BB3877F8BBBEFE9FFE03197F1F700C0D6
S1130570000008958AB38C6F8ABB83E00E944A020C
S11305808FE79EE30197F1F700C0000083E00E942B
S11305904A028FE79EE30197F1F700C0000083E071
S11305A00E944A028FE79EE30197F1F700C0000022
S11305B082E00E944A0288E20E944A0288E00E9485
S11305C04A0281E00E944A0286E00E944A028CE0CC
S11305D00E944A029FEF29EF80E091502040804022
S11305E0E1F700C0000008959BB394609BBB84FFB7
S11305F004C09BB390619BBB03C09BB39F7E9BBB1A
S113060085FF04C09BB390629BBB03C09BB39F7DDB
S11306109BBB86FF04C09BB390649BBB03C09BB38E
S11306209F7B9BBB882324F49BB390689BBB03C034
S11306309BB39F779BBB9BB398609BBBEFE9FFE0A9
S11306403197F1F700C000009BB3977F9BBBEFE9A4
S1130650FFE03197F1F700C0000080FF04C09BB3B6
S113066090619BBB03C09BB39F7E9BBB81FF04C077
S11306709BB390629BBB03C09BB39F7D9BBB82FFDC
S113068004C09BB390649BBB03C09BB39F7B9BBB89
S113069083FF04C08BB380688BBB03C08BB38F779D
S11306A08BBB8BB388608BBB8FE99FE00197F1F71D
S11306B000C000008BB3877F8BBBEFE9FFE031976D
S11306C0F1F700C0000008950F931F93CF938C019E
S11306D0C0E003C00E94F402CF5FF801EC0FF11DEB
S11306E080818111F7CFCF911F910F910895CF93FE
S11306F0DF93CDB7DEB72E970FB6F894DEBF0FBEEB
S1130700CDBF81B3816081BB0E94D0010E94BA0237
S113071010E00FC0E12EF12CC7018C599F4F0E94AD
S11307205500E1E0F0E0EC0FFD1FEE0DFF1D8083AE
S11307301F5F143078F380E80E944A0282EC90E054
S11307400E94640382EC0E944A020E94D50188231D
S1130750E1F3CE0105960E941401BE016B5F7F4F49
S1130760CE0101960E949701813029F70E94D5019C
S11307708823E1F30E94D5018F3259F40E94D501F8
S11307808111FCCFBE016B5F7F4FCE0101960E94A9
S11307909A000E94D5018823E1F30E94D5018A3290
S11307A051F60E94D5018111FCCF81E00E944A02DA
S11307B082EC0E944A0282ED90E00E9464032FEFD3
S11307C089E698E1215080409040E1F700C00000A4
S10F07D081E00E944A02AFCFF894FFCFF2
S11307DC70617373776F72645F72657365740073A1
S11307EC65745F70617373776F7264007061737397
S11307FC776F72645F736176656400706173735FA5
S113080C6E6F745F7361766564007472795F61678F
S113081C61696E004C6F636B65725F6F70656E65BA
S113082C64003738392F3435362A3132332D63305E
S113083C3D2B456E7465725F50617373776F726490
S10D084C3A00636C6F7365640000EA
S9030000FC
